{
  "_format": "hh-sol-artifact-1",
  "contractName": "GuessNumber",
  "sourceName": "contracts/GuessNumber.sol",
  "abi": [
    {
      "inputs": [],
      "stateMutability": "nonpayable",
      "type": "constructor"
    },
    {
      "anonymous": false,
      "inputs": [
        {
          "indexed": true,
          "internalType": "address",
          "name": "player",
          "type": "address"
        },
        {
          "indexed": false,
          "internalType": "bool",
          "name": "success",
          "type": "bool"
        },
        {
          "indexed": false,
          "internalType": "uint256",
          "name": "guessedNumber",
          "type": "uint256"
        }
      ],
      "name": "GuessResult",
      "type": "event"
    },
    {
      "inputs": [
        {
          "internalType": "uint256",
          "name": "number",
          "type": "uint256"
        }
      ],
      "name": "guess",
      "outputs": [
        {
          "internalType": "bool",
          "name": "",
          "type": "bool"
        }
      ],
      "stateMutability": "payable",
      "type": "function"
    },
    {
      "inputs": [],
      "name": "owner",
      "outputs": [
        {
          "internalType": "address",
          "name": "",
          "type": "address"
        }
      ],
      "stateMutability": "view",
      "type": "function"
    },
    {
      "inputs": [],
      "name": "revealSecretNumber",
      "outputs": [
        {
          "internalType": "uint256",
          "name": "",
          "type": "uint256"
        }
      ],
      "stateMutability": "view",
      "type": "function"
    }
  ],
  "bytecode": "0x608060405234801561001057600080fd5b5033600160006101000a81548173ffffffffffffffffffffffffffffffffffffffff021916908373ffffffffffffffffffffffffffffffffffffffff16021790555060076000819055506103d4806100696000396000f3fe6080604052600436106100345760003560e01c80630ad2d6c8146100395780638da5cb5b146100645780639189fec11461008f575b600080fd5b34801561004557600080fd5b5061004e6100bf565b60405161005b9190610313565b60405180910390f35b34801561007057600080fd5b506100796100c8565b6040516100869190610294565b60405180910390f35b6100a960048036038101906100a491906101fe565b6100ee565b6040516100b691906102af565b60405180910390f35b60008054905090565b600160009054906101000a900473ffffffffffffffffffffffffffffffffffffffff1681565b6000662386f26fc1000034101561013a576040517f08c379a0000000000000000000000000000000000000000000000000000000008152600401610131906102f3565b60405180910390fd5b60008054831490508015610190573373ffffffffffffffffffffffffffffffffffffffff166108fc479081150290604051600060405180830381858888f1935050505015801561018e573d6000803e3d6000fd5b505b3373ffffffffffffffffffffffffffffffffffffffff167ffdaa48b698c1fdb6a0c62b261be16f31a6f7755731c71ba3e78da8ee858fc5b682856040516101d89291906102ca565b60405180910390a280915050919050565b6000813590506101f881610387565b92915050565b60006020828403121561021057600080fd5b600061021e848285016101e9565b91505092915050565b6102308161033f565b82525050565b61023f81610351565b82525050565b6000610252601e8361032e565b91507f4e65656420746f2073656e64206174206c6561737420302e30312045544800006000830152602082019050919050565b61028e8161037d565b82525050565b60006020820190506102a96000830184610227565b92915050565b60006020820190506102c46000830184610236565b92915050565b60006040820190506102df6000830185610236565b6102ec6020830184610285565b9392505050565b6000602082019050818103600083015261030c81610245565b9050919050565b60006020820190506103286000830184610285565b92915050565b600082825260208201905092915050565b600061034a8261035d565b9050919050565b60008115159050919050565b600073ffffffffffffffffffffffffffffffffffffffff82169050919050565b6000819050919050565b6103908161037d565b811461039b57600080fd5b5056fea2646970667358221220c8114e821b9b0a053786350a0077cf1436936d59ef112e7828a7e315b2c68c3164736f6c63430008000033",
  "linkReferences": {},
  "deployedLinkReferences": {}
}